S01300006C65645F6C6962726172792E7372656388
S315200000000000012099020020090300200B03002094
S315200000100D0300200F030020110300200000000024
S315200000200000000000000000000000001303002074
S3152000003015030020000000001703002019030020EC
S315200000401B030020CD0B00201F03002021030020CE
S315200000502303002025030020270300202903002056
S315200000602B0300202D0300202F0300203103002026
S3152000007033030020350300203703002039030020F6
S315200000803B0300203D0300203F03002041030020C6
S315200000904303002045030020470300204903002096
S315200000A04B030020000000000000000000000000BC
S315200000B00000000000000000000000004D030020AA
S315200000C04F03002051030020530300205503002036
S315200000D057030020590300205B0300205D03002006
S315200000E05F030020610300206303002065030020D6
S315200000F067030020690300206B0300206D030020A6
S315200001006F03002071030020730300207503002075
S3152000011077030020790300207B0300207D03002045
S315200001207F03002081030020830300208503002015
S3152000013087030020890300208B0300208D030020E5
S315200001408F030020910300209303002095030020B5
S3152000015097030020990300209B0300209D03002085
S315200001609F030020A1030020A3030020A503002055
S31520000170A7030020A9030020AB030020AD03002025
S31520000180AF030020B1030020B3030020B5030020F5
S31520000190B7030020B9030020BB030020BD030020C5
S315200001A0BF030020C1030020C3030020C503002095
S315200001B0C7030020C9030020CB030020CD03002065
S315200001C0CF030020D1030020D3030020D503002035
S315200001D0D7030020D9030020DB030020DD03002005
S315200001E0DF030020E1030020E3030020E5030020D5
S315200001F0E7030020E9030020EB030020ED030020A5
S31520000200EF030020F1030020F3030020F503002074
S31520000210F7030020F9030020FB030020FD03002044
S31520000220FF03002001040020030400200504002011
S3152000023007040020090400200B0400200D040020E0
S315200002400F040020110400201304002015040020B0
S3152000025017040020190400201B0400201D04002080
S315200002601F04002021040020230400202504002050
S3152000027027040020290400202B0400202D04002020
S315200002802F040020310400203304002035040020F0
S315200002903704002039040020684880476848002831
S315200002A00BD168486849694A884206D091421CBFEA
S315200002B050F8043B41F8043BF8D165486549664A45
S315200002C0884206D091421CBF50F8043B41F8043BBB
S315200002D0F8D162486249634A914218BF41F8040B3B
S315200002E0FAD100000000000000000000000000001D
S315200002F0DFF874010FF2030E00474FF000004FF0B5
S315200003000001DFF868F1FEE7FEE7FEE7FEE7FEE71D
S31520000310FEE7FEE7FEE7FEE7FEE7FEE7FEE7FEE78F
S31520000320FEE7FEE7FEE7FEE7FEE7FEE7FEE7FEE77F
S31520000330FEE7FEE7FEE7FEE7FEE7FEE7FEE7FEE76F
S31520000340FEE7FEE7FEE7FEE7FEE7FEE7FEE7FEE75F
S31520000350FEE7FEE7FEE7FEE7FEE7FEE7FEE7FEE74F
S31520000360FEE7FEE7FEE7FEE7FEE7FEE7FEE7FEE73F
S31520000370FEE7FEE7FEE7FEE7FEE7FEE7FEE7FEE72F
S31520000380FEE7FEE7FEE7FEE7FEE7FEE7FEE7FEE71F
S31520000390FEE7FEE7FEE7FEE7FEE7FEE7FEE7FEE70F
S315200003A0FEE7FEE7FEE7FEE7FEE7FEE7FEE7FEE7FF
S315200003B0FEE7FEE7FEE7FEE7FEE7FEE7FEE7FEE7EF
S315200003C0FEE7FEE7FEE7FEE7FEE7FEE7FEE7FEE7DF
S315200003D0FEE7FEE7FEE7FEE7FEE7FEE7FEE7FEE7CF
S315200003E0FEE7FEE7FEE7FEE7FEE7FEE7FEE7FEE7BF
S315200003F0FEE7FEE7FEE7FEE7FEE7FEE7FEE7FEE7AF
S31520000400FEE7FEE7FEE7FEE7FEE7FEE7FEE7FEE79E
S31520000410FEE7FEE7FEE7FEE7FEE7FEE7FEE7FEE78E
S31520000420FEE7FEE7FEE7FEE7FEE7FEE7FEE7FEE77E
S31520000430FEE7FEE7FEE7FEE7FEE70000090F0020E5
S3152000044000000000000000200000002040150020D1
S3152000045040150020401500206C16002000000000EA
S315200004606C16002080160020DD130020A104002039
S3152000047041F26C63C2F200031A780AB9012018709F
S31520000480704700BF41F24050C2F2000008B5036831
S315200004902BB140F20003C0F2000303B1984708BD18
S315200004A080B400AFBD4680BC704700BF80B582B027
S315200004B000AF0346FB7141F27C63C2F20003FA7976
S315200004C01A70FB7918464FF0050100F0F5F807F190
S315200004D00807BD4680BD00BF80B500AF41F27863F6
S315200004E0C2F200031B78012B29D141F24853C2F2F4
S315200004F000031A7841F24953C2F200031B789A424C
S3152000050015D241F24853C2F200031B7803F10103CE
S31520000510DAB241F24853C2F200031A7041F248534C
S31520000520C2F200031B78184600F042F830E041F290
S315200005307863C2F200034FF000021A7028E041F2FD
S315200005404853C2F200031A7841F26D63C2F20003E7
S315200005501B789A4215D941F24853C2F200031B7800
S3152000056003F1FF33DAB241F24853C2F200031A70A4
S3152000057041F24853C2F200031B78184600F018F8DF
S3152000058006E041F27863C2F200034FF001021A70CE
S3152000059080BD00BF80B483B000AF13460246FA7117
S315200005A00A46BA717B7107F10C07BD4680BC7047BD
S315200005B080B483B000AF0346FB7107F10C07BD463C
S315200005C080BC704780B483B000AF0346FB7107F14F
S315200005D00C07BD4680BC704780B483B000AF03468D
S315200005E0FB804EF20013CEF20003B7F906204FEA45
S315200005F05212F98801F01F014FF0010000FA01F1B3
S3152000060043F8221007F10C07BD4680BC704700BF97
S3152000061080B483B000AF0346FB804EF20013CEF2C7
S315200006200003B7F906204FEA5212F98801F01F019C
S315200006304FF0010000FA01F102F1600243F82210A6
S3152000064007F10C07BD4680BC704700BF80B582B05D
S3152000065000AF42F20003CEF2040342F20002CEF2D1
S315200006600402126B42F480421A634FF000037B604F
S315200006700EE07A6841F2AC43C2F2000333F812303E
S315200006801BB21846FFF7C4FF7B6803F101037B60AA
S315200006907B681F2BEDD942F20003CEF2040342F20F
S315200006A00002CEF20402126B22F480421A6307F192
S315200006B00807BD4680BD00BF80B485B000AF0346A5
S315200006C03960FB71FB79FB60FB681F2B00D900BEEC
S315200006D0FB681F2B08D8FA6841F22C43C2F20003AC
S315200006E053F822303A681A6007F11407BD4680BCD9
S315200006F0704700BF80B485B000AF02460B46FA7142
S31520000700BB71FB79FB60FB681F2B00D900BEFB6821
S315200007101F2B09D840F20003C4F22623FA68B979C0
S3152000072002F5886243F8221007F11407BD4680BC03
S31520000730704700BF80B487B000AF02460B46FA71FF
S31520000740BB71FB797B617B691F2B00D900BE7B695E
S315200007501F2B7DD8BB79012B04D0022B60D0002B18
S315200007602ED074E043F20003C4F20103D3F888309C
S31520000770FB607B694FF0010202FA03F3FA6842EA52
S315200007800303FB6043F20003C4F20103FA68C3F8D3
S3152000079088207A6941F22C43C2F2000353F82230B2
S315200007A01B683B613B6943F004033B617A6941F274
S315200007B02C43C2F2000353F822303A691A6047E00C
S315200007C043F20003C4F20103D3F88830FB607B694F
S315200007D04FF0010202FA03F36FEA0303FA6802EA12
S315200007E00303FB6043F20003C4F20103FA68C3F873
S315200007F088207A6941F22C43C2F2000353F8223052
S315200008001B683B613B6943F004033B617A6941F213
S315200008102C43C2F2000353F822303A691A6017E0DB
S315200008207A6941F22C43C2F2000353F822301B6846
S315200008303B613B6923F004033B617A6941F22C4317
S31520000840C2F2000353F822303A691A6000E000BE73
S3152000085007F11C07BD4680BC704700BF80B584B039
S3152000086000AF0346FB71FB79FB60FB681F2B00D9A9
S3152000087000BEFB681F2B1ED8FA6841F22C43C2F239
S31520000880000353F822301B68BB60FA6841F22C4300
S31520000890C2F2000353F82230BA6842F008021A6006
S315200008A0FA6841F2AC43C2F2000333F812301BB2AD
S315200008B01846FFF791FE07F11007BD4680BD00BF21
S315200008C080B485B000AF0346FB71FB79FB60FB6803
S315200008D01F2B00D900BEFB681F2B13D8FA6841F2E4
S315200008E02C43C2F2000353F822301B68BB60FA681F
S315200008F041F22C43C2F2000353F82230BA6822F0A8
S3152000090008021A6007F11407BD4680BC704700BF75
S3152000091080B584B000AF0346FB71FB79FB60FB68B2
S315200009201F2B00D900BEFB681F2B15D843F20003EE
S31520000930C4F20103FA684FF0010101FA02F2C3F88A
S315200009408020FA6841F2AC43C2F2000333F8123039
S315200009501BB21846FFF75CFE07F11007BD4680BDA7
S3152000096080B400AFBD4680BC704700BF80B483B062
S3152000097000AF0346FB71FA7941F24C53C2F20003F1
S3152000098053F82220F97941F24C53C2F2000353F86E
S3152000099021309B6843F00103936007F10C07BD46A5
S315200009A080BC704780B483B000AF0346FB71FA79F0
S315200009B041F24C53C2F2000353F82220F97941F256
S315200009C04C53C2F2000353F821309B6823F00103F5
S315200009D0936007F10C07BD4680BC704780B483B096
S315200009E000AF03463960FB71FA7941F24C53C2F2EB
S315200009F0000353F822303A681A6007F10C07BD4607
S31520000A0080BC704780B483B000AF0346FB71FA798F
S31520000A1041F24C53C2F2000353F822305B68184669
S31520000A2007F10C07BD4680BC704700BF80B483B079
S31520000A3000AF0346FB71FA7941F24C53C2F2000330
S31520000A4053F82220F97941F24C53C2F2000353F8AD
S31520000A5021309B6843F00203936007F10C07BD46E3
S31520000A6080BC704780B483B000AF0346FB71FA792F
S31520000A7041F24C53C2F2000353F82220F97941F295
S31520000A804C53C2F2000353F821309B6823F0020333
S31520000A90936007F10C07BD4680BC704780B483B0D5
S31520000AA000AF0346FB71FA7941F24C53C2F20003C0
S31520000AB053F82220F97941F24C53C2F2000353F83D
S31520000AC021309B6843F00403936007F10C07BD4671
S31520000AD080BC704780B483B000AF0346FB71FA79BF
S31520000AE041F24C53C2F2000353F82220F97941F225
S31520000AF04C53C2F2000353F821309B6823F00403C1
S31520000B00936007F10C07BD4680BC704780B483B064
S31520000B1000AF03463960FB71FA7941F24C53C2F2B9
S31520000B20000353F822303A68DA6007F10C07BD4615
S31520000B3080BC704780B483B000AF0346FB71FA795E
S31520000B4041F24C53C2F2000353F82220F97941F2C4
S31520000B504C53C2F2000353F821309B6843F008033C
S31520000B60936007F10C07BD4680BC704780B483B004
S31520000B7000AF0346FB71FA7941F24C53C2F20003EF
S31520000B8053F82220F97941F24C53C2F2000353F86C
S31520000B9021309B6823F00803936007F10C07BD46BC
S31520000BA080BC704780B483B000AF0346FB71FA79EE
S31520000BB041F24C53C2F2000353F822301B69184607
S31520000BC007F10C07BD4680BC704700BF684620F081
S31520000BD007018D4681B482B000AF42F20003CEF207
S31520000BE0040342F20002CEF20402126D42F4E02225
S31520000BF01A6542F20003CEF2040342F20002CEF25C
S31520000C000402D26C22F47C1242F47012DA6442F2AC
S31520000C100003CEF2040342F20002CEF20402126D69
S31520000C2022F0706242F080721A654FF064033B60D6
S31520000C3042F20003CEF204035B6B03F003037B60F6
S31520000C407B68032B04D13B6803F1FF333B6002E052
S31520000C504FF064033B603B68002BE9D14EF600530E
S31520000C60CEF2000340F20402C0F2FA52DA6007F133
S31520000C700807BD4681BC8546704700BF4FF000047B
S31520000C80EFF309842046704723461846034683F32C
S31520000C90098870474FF00004EFF308842046704718
S31520000CA023461846034683F30888704780B483B0EA
S31520000CB000AF4FF000037B60EFF312837B607B680D
S31520000CC0184607F10C07BD4680BC704780B483B038
S31520000CD000AF78607B6883F3118807F10C07BD4667
S31520000CE080BC704780B483B000AF4FF000037B60B8
S31520000CF0EFF310837B607B68184607F10C07BD462F
S31520000D0080BC704780B483B000AF78607B6883F383
S31520000D10108807F10C07BD4680BC704780B483B0AD
S31520000D2000AF4FF000037B60EFF313837B607B689B
S31520000D30184607F10C07BD4680BC704780B483B0C7
S31520000D4000AF78607B6883F3138807F10C07BD46F4
S31520000D5080BC704780B483B000AF4FF000037B6047
S31520000D60EFF314837B607B68184607F10C07BD46BA
S31520000D7080BC704780B483B000AF78607B6883F313
S31520000D80148807F10C07BD4680BC704780B485B037
S31520000D9000AF78604FF00003FB607B681BBAFB60F6
S31520000DA0FB68184607F11407BD4680BC704700BF94
S31520000DB080B485B000AF0346FB804FF00003FB6094
S31520000DC0FB885BBAFB60FB68184607F11407BD4633
S31520000DD080BC704780B485B000AF0346FB804FF0DF
S31520000DE00003FB60FB88DBBAFB60FB68184607F153
S31520000DF01407BD4680BC704780B485B000AF7860CC
S31520000E004FF00003FB607B6893FAA3F3FB60FB685B
S31520000E10184607F11407BD4680BC704780B485B0DC
S31520000E2000AF78604FF00003FB737B68D3E84F3F39
S31520000E30FB73FB7B184607F11407BD4680BC704741
S31520000E4080B485B000AF78604FF00003FB817B68EB
S31520000E50D3E85F3FFB81FB89184607F11407BD469F
S31520000E6080BC704780B485B000AF78604FF0000337
S31520000E70FB607B6853E8003FFB60FB68184607F180
S31520000E801407BD4680BC704780B485B000AF0346CA
S31520000E903960FB714FF00003FB603B68FA79C3E8C9
S31520000EA0432FFB60FB68184607F11407BD4680BC3C
S31520000EB0704700BF80B485B000AF03463960FB8021
S31520000EC04FF00003FB603B68FA88C3E8532FFB60B2
S31520000ED0FB68184607F11407BD4680BC704700BF63
S31520000EE080B485B000AF786039604FF00003FB60B6
S31520000EF03B687A6843E80023FB60FB68184607F1E5
S31520000F001407BD4680BC704780B400AFBD4680BC88
S31520000F10704700BF80B58AB000AF41F2EC43C2F201
S31520000F200003BC460FCB8CE80F0042F20003CEF242
S31520000F3004039B6C4FEA930303F003034FEA8303F6
S31520000F4007F12802134453F8283C3B6142F2000380
S31520000F50CEF204039B6C4FEA131303F003034FEA0C
S31520000F60830307F12802134453F8283C7B6142F29D
S31520000F700003CEF204039B6C4FEA931303F00303A2
S31520000F804FEA830307F12802134453F8283CBB6138
S31520000F9042F20003CEF20403DB6C4FEA132303F084
S31520000FA01F033B6242F20003CEF20403DB6C4FEADE
S31520000FB0533303F001037B623B6A03F10103FB61B8
S31520000FC07B6A002B03D0FB694FEA4303FB6100F0E9
S31520000FD049F8024641F26053C2F200031A6041F218
S31520000FE06053C2F200031A683B69B2FBF3F241F286
S31520000FF06453C2F200031A6041F26053C2F2000346
S315200010001A687B69B2FBF3F241F26853C2F200031D
S315200010101A6041F26053C2F200031A68BB69B2FB40
S31520001020F3F241F26C53C2F200031A6041F26053AC
S31520001030C2F200031A68FB69B2FBF3F241F2705365
S31520001040C2F200031A6041F26053C2F200031A682A
S3152000105041F25C53C2F200031A6007F12807BD462D
S3152000106080BD00BF80B48BB000AF4FF000037B6023
S3152000107040F61C03C6F20803BB6040F23023C6F2DA
S315200010800803FB60FB681B6823F070433B613A69E9
S3152000109041F2CF13C0F2A1539A4208D14EF62C73D7
S315200010A0C6F201037B617B691B687B603DE0BB6800
S315200010B01A6844F24133C4F654439A4235D140F675
S315200010C04003C6F20803BB61BB691B68FB61FB6971
S315200010D023F07F43FB61FA6940F20033C0F201033B
S315200010E09A4222D9FA694FF6FF73C0F201039A4257
S315200010F008D841F22C63C6F208033B623B6A1B68A0
S315200011007B6012E0FA694FF6FF73C0F202039A423F
S3152000111008D841F6AC63C6F208037B627B6A1B687B
S315200011207B6002E04FF000037B607B68002B05D1DB
S3152000113000BE47F64003C0F27D137B607B681846ED
S3152000114007F12C07BD4680BC704700BF80B483B032
S3152000115000AF78604FF0FF33184607F10C07BD4605
S3152000116080BC704780B584B000AFF860B9607A6003
S3152000117000F02EF903464FF00C021A604FF0FF33B1
S31520001180184607F11007BD4680BD00BF80B483B066
S3152000119000AF7860FEE700BF80B500AF00F018F919
S315200011A003464FF00B021A604FF0FF33184680BDFE
S315200011B080B483B000AF786039603B684FF400524A
S315200011C05A604FF00003184607F10C07BD4680BC55
S315200011D0704700BF80B400AF4FF001031846BD46EC
S315200011E080BC704780B483B000AF78604FF00103B5
S315200011F0184607F10C07BD4680BC704780B582B003
S3152000120000AF7860396000F0E3F803464FF016022D
S315200012101A604FF0FF33184607F10807BD4680BD18
S3152000122080B582B000AF7860396000F0D1F803460F
S315200012304FF01F021A604FF0FF33184607F10807D8
S31520001240BD4680BD80B485B000AFF860B9607A60D5
S315200012504FF00003184607F11407BD4680BC7047BF
S3152000126080B485B000AFF860B9607A604FF0FF3384
S31520001270184607F11407BD4680BC704780B485B078
S3152000128000AFF860B9607A604FF00003184607F1A6
S315200012901407BD4680BC704780B485B000AFF860A7
S315200012A0B9607A603B604FF00003184607F11407D7
S315200012B0BD4680BC704700BF80B584B000AF786063
S315200012C041F27463C2F200031B68002B08D141F27D
S315200012D07463C2F2000341F28062C2F200021A6015
S315200012E041F27463C2F200031B68BB60EFF308830C
S315200012F0FB6041F27463C2F200031A687B681A44E9
S31520001300FB689A420FD94FF000004FF0010141F2DD
S31520001310FC42C2F200024FF01903FFF7BDFF4FF067
S315200013200100FFF733FF41F27463C2F200031A682B
S315200013307B681A4441F27463C2F200031A60BB68E8
S31520001340184607F11007BD4680BD00BF80B483B0A4
S3152000135000AF786039603B684FF400525A604FF016
S315200013600003184607F10C07BD4680BC704700BF36
S3152000137080B483B000AF78604FF0FF33184607F192
S315200013800C07BD4680BC704780B582B000AF786040
S3152000139000F01EF803464FF002021A604FF0FF33AA
S315200013A0184607F10807BD4680BD00BF80B582B04C
S315200013B000AF786000F00CF803464FF00A021A607E
S315200013C04FF0FF33184607F10807BD4680BD00BF22
S315200013D041F27853C2F200031868704770B541F2A3
S315200013E0385641F23855C2F20006C2F20005761B85
S315200013F0B61006D0002455F8243001349847A6426A
S31520001400F9D841F2385541F23C56C2F20005C2F2F3
S315200014100006761B00F084F8B61006D0002455F896
S31520001420243001349847A642F9D870BD00300140D7
S3152000143004300140083001400C300140103001409A
S3152000144014300140183001401C300140203001404A
S3152000145024300140283001402C30014030300140FA
S3152000146034300140383001403C30014040300140AA
S3152000147044300140483001404C300140503001405A
S3152000148054300140583001405C300140603001400A
S3152000149064300140683001406C30014070300140BA
S315200014A074300140783001407C300140200021001A
S315200014B022002300240025002600270028002900DA
S315200014C02A002B002C002D002E002F00300031008A
S315200014D0320033003400350036003700380039003A
S315200014E03A003B003C003D003E003F00010000006A
S315200014F00200000004000000010000004865617041
S3152000150020616E6420737461636B20636F6C6C69F9
S3152000151073696F6E0A0000007C15002043000000EE
S31520001520F8B500BFF8BC08BC9E467047F8B500BFAA
S31520001530F8BC08BC9E467047850400207104002034
S315200015400000000000000000646400000001054067
S3152000155000020540000305400004054040787D0157
S3152000156040787D01105E5F00105E5F00105E5F00B8
S31520001570105E5F00701600207C1500200000000021
S315200015800000000000000000000000000000000035
S315200015900000000000000000000000001C150020D4
S315200015A00000000000000000000000000000000015
S315200015B00000000000000000000000000000000005
S315200015C000000000000000000000000000000000F5
S315200015D000000000000000000000000000000000E5
S315200015E000000000000000000000000000000000D5
S315200015F000000000000000000000000000000000C5
S3152000160000000000000000000000000000000000B4
S3152000161000000000000000000000000000000000A4
S315200016200000000000000000000000000000000094
S315200016300000000000000000000000000000000084
S315200016400000000000000000000000000000000074
S315200016500000000000000000000000000000000064
S3112000166000000000000000000000000058
S705200002993F
