S01300006C65645F6C6962726172792E7372656388
S315200000000000012099020020090300200B03002094
S315200000100D0300200F030020110300200000000024
S315200000200000000000000000000000001303002074
S3152000003015030020000000001703002019030020EC
S315200000401B030020511000201F0300202103002045
S315200000502303002025030020270300202903002056
S315200000602B0300202D0300202F0300203103002026
S3152000007033030020350300203703002039030020F6
S315200000803B0300203D0300203F03002041030020C6
S315200000904303002045030020470300204903002096
S315200000A04B030020000000000000000000000000BC
S315200000B00000000000000000000000004D030020AA
S315200000C04F03002051030020530300205503002036
S315200000D057030020A1040020AD040020B90400200D
S315200000E0C50400206103002063030020650300206F
S315200000F067030020690300206B0300206D030020A6
S315200001006F03002071030020730300207503002075
S3152000011077030020790300207B0300207D03002045
S315200001207F03002081030020830300208503002015
S3152000013087030020890300208B0300208D030020E5
S315200001408F030020910300209303002095030020B5
S3152000015097030020990300209B0300209D03002085
S315200001609F030020A1030020A3030020A503002055
S31520000170A7030020A9030020AB030020AD03002025
S31520000180AF030020B1030020B3030020B5030020F5
S31520000190B7030020B9030020BB030020BD030020C5
S315200001A0BF030020C1030020C3030020C503002095
S315200001B0C7030020C9030020CB030020CD03002065
S315200001C0CF030020D1030020D3030020D503002035
S315200001D0D7030020D9030020DB030020DD03002005
S315200001E0DF030020E1030020E3030020E5030020D5
S315200001F0E7030020E9030020EB030020ED030020A5
S31520000200EF030020F1030020F3030020F503002074
S31520000210F7030020F9030020FB030020FD03002044
S31520000220FF03002001040020030400200504002011
S3152000023007040020090400200B0400200D040020E0
S315200002400F040020110400201304002015040020B0
S3152000025017040020190400201B0400201D04002080
S315200002601F04002021040020230400202504002050
S3152000027027040020290400202B0400202D04002020
S315200002802F040020310400203304002035040020F0
S315200002903704002039040020684880476848002831
S315200002A00BD168486849694A884206D091421CBFEA
S315200002B050F8043B41F8043BF8D165486549664A45
S315200002C0884206D091421CBF50F8043B41F8043BBB
S315200002D0F8D162486249634A914218BF41F8040B3B
S315200002E0FAD100000000000000000000000000001D
S315200002F0DFF874010FF2030E00474FF000004FF0B5
S315200003000001DFF868F1FEE7FEE7FEE7FEE7FEE71D
S31520000310FEE7FEE7FEE7FEE7FEE7FEE7FEE7FEE78F
S31520000320FEE7FEE7FEE7FEE7FEE7FEE7FEE7FEE77F
S31520000330FEE7FEE7FEE7FEE7FEE7FEE7FEE7FEE76F
S31520000340FEE7FEE7FEE7FEE7FEE7FEE7FEE7FEE75F
S31520000350FEE7FEE7FEE7FEE7FEE7FEE7FEE7FEE74F
S31520000360FEE7FEE7FEE7FEE7FEE7FEE7FEE7FEE73F
S31520000370FEE7FEE7FEE7FEE7FEE7FEE7FEE7FEE72F
S31520000380FEE7FEE7FEE7FEE7FEE7FEE7FEE7FEE71F
S31520000390FEE7FEE7FEE7FEE7FEE7FEE7FEE7FEE70F
S315200003A0FEE7FEE7FEE7FEE7FEE7FEE7FEE7FEE7FF
S315200003B0FEE7FEE7FEE7FEE7FEE7FEE7FEE7FEE7EF
S315200003C0FEE7FEE7FEE7FEE7FEE7FEE7FEE7FEE7DF
S315200003D0FEE7FEE7FEE7FEE7FEE7FEE7FEE7FEE7CF
S315200003E0FEE7FEE7FEE7FEE7FEE7FEE7FEE7FEE7BF
S315200003F0FEE7FEE7FEE7FEE7FEE7FEE7FEE7FEE7AF
S31520000400FEE7FEE7FEE7FEE7FEE7FEE7FEE7FEE79E
S31520000410FEE7FEE7FEE7FEE7FEE7FEE7FEE7FEE78E
S31520000420FEE7FEE7FEE7FEE7FEE7FEE7FEE7FEE77E
S31520000430FEE7FEE7FEE7FEE7FEE700008D1300205D
S31520000440000000000000002000000020C419002049
S31520000450C4190020C4190020E01A00200000000062
S31520000460E01A0020501B002061180020D104002033
S3152000047041F6E023C2F200031A780AB90120187067
S31520000480704700BF41F6C410C2F2000008B50368E9
S315200004902BB140F20003C0F2000303B1984708BD18
S315200004A080B500AF00F078F980BD00BF80B500AF01
S315200004B000F084F980BD00BF80B500AF00F090F950
S315200004C080BD00BF80B500AF00F01CF980BD00BF25
S315200004D080B500AF00F0C8FA4FF005004FF00601D6
S315200004E04FF008024FF0080300F016F84FF009000D
S315200004F04FF00A014FF00B0200F0C6F84FF06400EF
S315200005004FF0C8014FF0FF0200F0ACF944F620602E
S3152000051000F04AFA80BD00BF80B582B000AFF87106
S31520000520B9717A713B71FB7918464FF0620100F080
S31520000530D1FABB7918464FF0620100F0CBFA7B79ED
S3152000054018464FF0620100F0C5FA3B7918464FF085
S31520000550620100F0BFFAFB79184600F08DFBBB79EB
S31520000560184600F089FB7B79184600F085FB3B791D
S31520000570184600F081FB40F20010C4F2050000F09E
S3152000058009FC03461A4641F6EE23C2F200031A700E
S3152000059040F20020C4F2050000F0FCFB03461A4698
S315200005A041F64B33C2F200031A7040F20030C4F217
S315200005B0050000F0EFFB03461A4641F64933C2F226
S315200005C000031A7040F20040C4F2050000F0E2FB7E
S315200005D003461A4641F6F023C2F200031A7041F68A
S315200005E0EE23C2F200031B7818464FF0FF0100F0FD
S315200005F037FC41F64933C2F200031B7818464FF008
S31520000600FF0100F02DFC41F64B33C2F200031B78AC
S3152000061018464FF0FF0100F023FC41F6F023C2F20A
S3152000062000031B7818464FF0000100F019FC41F634
S31520000630F023C2F200031B78184600F0BDFC41F6F9
S31520000640F023C2F200031B78184600F085FC41F621
S31520000650EE23C2F200031B78184600F029FC41F66F
S315200006604933C2F200031B78184600F021FC41F6FC
S315200006704B33C2F200031B78184600F019FC07F131
S315200006800807BD4680BD00BF80B582B000AF1346C7
S315200006900246FA710A46BA717B7141F64A33C2F2B2
S315200006A00003FA791A7041F64A33C2F200031B7826
S315200006B018464FF0050100F00DFA41F6EF23C2F27D
S315200006C00003BA791A7041F6EF23C2F200031B78B1
S315200006D018464FF0050100F0FDF941F6EC23C2F271
S315200006E000037A791A7041F6EC23C2F200031B78D4
S315200006F018464FF0050100F0EDF907F10807BD4651
S3152000070080BD00BF80B500AF41F6ED23C2F20003E5
S315200007101B78012B1FD141F6CC13C2F200031A78A5
S3152000072041F6CD13C2F200031B789A420BD241F652
S31520000730CC13C2F200031B7803F10103DBB2184687
S3152000074000F0B0F826E041F6ED23C2F200034FF0A8
S3152000075000021A701EE041F6CC13C2F200031A788A
S3152000076041F6E123C2F200031B789A420BD941F6E7
S31520000770CC13C2F200031B7803F1FF33DBB2184619
S3152000078000F090F806E041F6ED23C2F200034FF0A8
S3152000079001021A7080BD00BF80B500AF41F64A3312
S315200007A0C2F200031B781A4641F6EE23C2F200037A
S315200007B01B781046194600F025F880BD80B500AF9D
S315200007C041F6EF23C2F200031B781A4641F64B335B
S315200007D0C2F200031B781046194600F013F880BDBC
S315200007E080B500AF41F6EC23C2F200031B781A460F
S315200007F041F64933C2F200031B781046194600F031
S3152000080001F880BD80B584B000AF786039607B6820
S31520000810DBB2184600F08AFA3B68DBB2184600F0D5
S3152000082003FC0346FB60FB6803F00103DBB2002BED
S3152000083007D07B68DBB218464FF0000100F068F95C
S315200008400BE0FB6803F00203002B06D07B68DBB2CB
S3152000085018464FF0010100F05BF907F11007BD467D
S3152000086080BD00BF80B483B000AF13460246FA7144
S315200008700A46BA717B7141F64633C2F20003FA7911
S315200008801A7041F64533C2F20003BA791A7041F65E
S315200008904433C2F20003BA791A7007F10C07BD4639
S315200008A080BC704780B582B000AF0346FB7141F62D
S315200008B0CC13C2F20003FA791A7041F6EE23C2F283
S315200008C000031A7841F64633C2F200031B78194614
S315200008D041F6CC13C2F20003187841F6CD13C2F2CA
S315200008E000031B78B0FBF3F3DBB203FB01F31046E6
S315200008F0194600F04DFB41F64933C2F200031A783F
S3152000090041F64433C2F200031B78194641F6CC1354
S31520000910C2F20003187841F6CD13C2F200031B7809
S31520000920B0FBF3F3DBB203FB01F31046194600F0EC
S315200009302FFB41F64B33C2F200031A7841F64533BA
S31520000940C2F200031B78194641F6CC13C2F200030B
S31520000950187841F6CD13C2F200031B78B0FBF3F3EF
S31520000960DBB203FB01F31046194600F011FB41F6FA
S31520000970EE23C2F200031B78184600F039FA41F63E
S315200009804B33C2F200031B78184600F031FA41F6C9
S315200009904933C2F200031B78184600F029FA07F102
S315200009A00807BD4680BD00BF80B582B000AF786025
S315200009B041F6F023C2F200031B781846796800F04E
S315200009C04FFA7B68002B08D041F6F023C2F20003D1
S315200009D01B78184600F00CFA07E041F6F023C2F225
S315200009E000031B78184600F01FFA07F10807BD46DA
S315200009F080BD00BF80B483B000AF0346FB804EF2BB
S31520000A000013CEF20003B7F906204FEA5212F988F6
S31520000A1001F01F014FF0010000FA01F143F8221006
S31520000A2007F10C07BD4680BC704700BF80B483B079
S31520000A3000AF0346FB804EF20013CEF20003B7F957
S31520000A4006204FEA5212F98801F01F014FF00100EB
S31520000A5000FA01F102F1600243F8221007F10C07B7
S31520000A60BD4680BC704700BF80B582B000AF42F261
S31520000A700003CEF2040342F20002CEF20402126B0D
S31520000A8042F480421A634FF000037B600EE07A68DE
S31520000A9041F63013C2F2000333F812301BB2184667
S31520000AA0FFF7C4FF7B6803F101037B607B681F2B84
S31520000AB0EDD942F20003CEF2040342F20002CEF256
S31520000AC00402126B22F480421A6307F10807BD461E
S31520000AD080BD00BF80B485B000AF03463960FB718E
S31520000AE0FB79FB60FB681F2B00D900BEFB681F2B20
S31520000AF008D8FA6841F6B003C2F2000353F8223050
S31520000B003A681A6007F11407BD4680BC704700BFDB
S31520000B1080B485B000AF02460B46FA71BB71FB79F3
S31520000B20FB60FB681F2B00D900BEFB681F2B09D872
S31520000B3040F20003C4F22623FA68B97902F58862E6
S31520000B4043F8221007F11407BD4680BC704700BF4A
S31520000B5080B487B000AF02460B46FA71BB71FB79B1
S31520000B607B617B691F2B00D900BE7B691F2B7DD83B
S31520000B70BB79012B04D0022B60D0002B2ED074E041
S31520000B8043F20003C4F20103D3F88830FB607B698B
S31520000B904FF0010202FA03F3FA6842EA0303FB600C
S31520000BA043F20003C4F20103FA68C3F888207A6985
S31520000BB041F6B003C2F2000353F822301B683B61B2
S31520000BC03B6943F004033B617A6941F6B003C2F204
S31520000BD0000353F822303A691A6047E043F20003D3
S31520000BE0C4F20103D3F88830FB607B694FF0010221
S31520000BF002FA03F36FEA0303FA6802EA0303FB60CF
S31520000C0043F20003C4F20103FA68C3F888207A6924
S31520000C1041F6B003C2F2000353F822301B683B6151
S31520000C203B6943F004033B617A6941F6B003C2F2A3
S31520000C30000353F822303A691A6017E07A6941F6C0
S31520000C40B003C2F2000353F822301B683B613B69B4
S31520000C5023F004033B617A6941F6B003C2F2000334
S31520000C6053F822303A691A6000E000BE07F11C07EB
S31520000C70BD4680BC704700BF80B584B000AF034638
S31520000C80FB71FB79FB60FB681F2B00D900BEFB685C
S31520000C901F2B1ED8FA6841F6B003C2F2000353F8A0
S31520000CA022301B68BB60FA6841F6B003C2F200032B
S31520000CB053F82230BA6842F008021A60FA6841F600
S31520000CC03013C2F2000333F812301BB21846FFF776
S31520000CD091FE07F11007BD4680BD00BF80B485B0E8
S31520000CE000AF0346FB71FB79FB60FB681F2B00D925
S31520000CF000BEFB681F2B13D8FA6841F6B003C2F278
S31520000D00000353F822301B68BB60FA6841F6B00333
S31520000D10C2F2000353F82230BA6822F008021A60A1
S31520000D2007F11407BD4680BC704700BF80B584B06C
S31520000D3000AF0346FB71FB79FB60FB681F2B00D9D4
S31520000D4000BEFB681F2B15D843F20003C4F2010333
S31520000D50FA684FF0010101FA02F2C3F88020FA681E
S31520000D6041F63013C2F2000333F812301BB2184694
S31520000D70FFF75CFE07F11007BD4680BD80B400AFCB
S31520000D8041F64833C2F200034FF000021A70BD4606
S31520000D9080BC704780B485B000AF786041F6483398
S31520000DA0C2F200031B78FB7341F64833C2F20003FC
S31520000DB01B78132B14D841F64833C2F200031A7855
S31520000DC0114641F6F423C2F20003786843F8210065
S31520000DD002F10103DAB241F64833C2F200031A7077
S31520000DE0FB7B184607F11407BD4680BC704700BF41
S31520000DF080B483B000AF0346FB71FA7941F6F42341
S31520000E00C2F2000353F82220F97941F6F423C2F204
S31520000E10000353F821309B6843F00103936007F1E8
S31520000E200C07BD4680BC704780B483B000AF034634
S31520000E30FB71FA7941F6F423C2F2000353F822201B
S31520000E40F97941F6F423C2F2000353F821309B6866
S31520000E5023F00103936007F10C07BD4680BC704761
S31520000E6080B483B000AF03463960FB71FA7941F64E
S31520000E70F423C2F2000353F822303A681A6007F1CD
S31520000E800C07BD4680BC704780B483B000AF0346D4
S31520000E90FB71FA7941F6F423C2F2000353F82230AB
S31520000EA05B68184607F10C07BD4680BC704700BF3B
S31520000EB080B483B000AF0346FB71FA7941F6F42380
S31520000EC0C2F2000353F82220F97941F6F423C2F244
S31520000ED0000353F821309B6843F00203936007F127
S31520000EE00C07BD4680BC704780B483B000AF034674
S31520000EF0FB71FA7941F6F423C2F2000353F822205B
S31520000F00F97941F6F423C2F2000353F821309B68A5
S31520000F1023F00203936007F10C07BD4680BC70479F
S31520000F2080B483B000AF0346FB71FA7941F6F4230F
S31520000F30C2F2000353F82220F97941F6F423C2F2D3
S31520000F40000353F821309B6843F00403936007F1B4
S31520000F500C07BD4680BC704780B483B000AF034603
S31520000F60FB71FA7941F6F423C2F2000353F82220EA
S31520000F70F97941F6F423C2F2000353F821309B6835
S31520000F8023F00403936007F10C07BD4680BC70472D
S31520000F9080B483B000AF03463960FB71FA7941F61D
S31520000FA0F423C2F2000353F822303A68DA6007F1DC
S31520000FB00C07BD4680BC704780B483B000AF0346A3
S31520000FC0FB71FA7941F6F423C2F2000353F822208A
S31520000FD0F97941F6F423C2F2000353F821309B68D5
S31520000FE043F00803936007F10C07BD4680BC7047A9
S31520000FF080B483B000AF0346FB71FA7941F6F4233F
S31520001000C2F2000353F82220F97941F6F423C2F202
S31520001010000353F821309B6823F00803936007F1FF
S315200010200C07BD4680BC704780B483B000AF034632
S31520001030FB71FA7941F6F423C2F2000353F8223009
S315200010401B69184607F10C07BD4680BC704700BFD8
S31520001050684620F007018D4681B482B000AF42F287
S315200010600003CEF2040342F20002CEF20402126D15
S3152000107042F4E0221A6542F20003CEF2040342F261
S315200010800002CEF20402D26C22F47C1242F47012D8
S31520001090DA6442F20003CEF2040342F20002CEF2F8
S315200010A00402126D22F0706242F080721A654FF0CF
S315200010B064033B6042F20003CEF204035B6B03F051
S315200010C003037B607B68032B04D13B6803F1FF336A
S315200010D03B6002E04FF064033B603B68002BE9D1A4
S315200010E04EF60053CEF2000340F20402C0F2FA524A
S315200010F0DA6007F10807BD4681BC8546704700BF08
S315200011004FF00004EFF30984204670472346184623
S31520001110034683F3098870474FF00004EFF30884F1
S315200011202046704723461846034683F308887047AF
S3152000113080B483B000AF4FF000037B60EFF31283DF
S315200011407B607B68184607F10C07BD4680BC70475C
S3152000115080B483B000AF78607B6883F3118807F191
S315200011600C07BD4680BC704780B483B000AF4FF0FB
S3152000117000037B60EFF310837B607B68184607F1E2
S315200011800C07BD4680BC704780B483B000AF786042
S315200011907B6883F3108807F10C07BD4680BC704737
S315200011A080B483B000AF4FF000037B60EFF313836E
S315200011B07B607B68184607F10C07BD4680BC7047EC
S315200011C080B483B000AF78607B6883F3138807F11F
S315200011D00C07BD4680BC704780B483B000AF4FF08B
S315200011E000037B60EFF314837B607B68184607F16E
S315200011F00C07BD4680BC704780B483B000AF7860D2
S315200012007B6883F3148807F10C07BD4680BC7047C2
S3152000121080B485B000AF78604FF00003FB607B6838
S315200012201BBAFB60FB68184607F11407BD4680BC55
S31520001230704700BF80B485B000AF0346FB804FF0F7
S315200012400003FB60FB885BBAFB60FB68184607F16E
S315200012501407BD4680BC704780B485B000AF0346F6
S31520001260FB804FF00003FB60FB88DBBAFB60FB686A
S31520001270184607F11407BD4680BC704780B485B078
S3152000128000AF78604FF00003FB607B6893FAA3F30E
S31520001290FB60FB68184607F11407BD4680BC704703
S315200012A080B485B000AF78604FF00003FB737B6895
S315200012B0D3E84F3FFB73FB7B184607F11407BD4667
S315200012C080BC704780B485B000AF78604FF00003D3
S315200012D0FB817B68D3E85F3FFB81FB89184607F1DA
S315200012E01407BD4680BC704780B485B000AF7860D7
S315200012F04FF00003FB607B6853E8003FFB60FB6810
S31520001300184607F11407BD4680BC704780B485B0E7
S3152000131000AF03463960FB714FF00003FB603B686A
S31520001320FA79C3E8432FFB60FB68184607F11407D8
S31520001330BD4680BC704700BF80B485B000AF034671
S315200013403960FB804FF00003FB603B68FA88C3E8F6
S31520001350532FFB60FB68184607F11407BD4680BC77
S31520001360704700BF80B485B000AF786039604FF019
S315200013700003FB603B687A6843E80023FB60FB6858
S31520001380184607F11407BD4680BC704780B400AFED
S31520001390BD4680BC704700BF80B58AB000AF41F61D
S315200013A07013C2F20003BC460FCB8CE80F0042F24A
S315200013B00003CEF204039B6C4FEA930303F003036E
S315200013C04FEA830307F12802134453F8283C3B6174
S315200013D042F20003CEF204039B6C4FEA131303F090
S315200013E003034FEA830307F12802134453F8283CEA
S315200013F07B6142F20003CEF204039B6C4FEA931307
S3152000140003F003034FEA830307F12802134453F83A
S31520001410283CBB6142F20003CEF20403DB6C4FEAA8
S31520001420132303F01F033B6242F20003CEF20403B0
S31520001430DB6C4FEA533303F001037B623B6A03F113
S315200014400103FB617B6A002B03D0FB694FEA430350
S31520001450FB6100F049F8024641F6D413C2F20003BC
S315200014601A6041F6D413C2F200031A683B69B2FB34
S31520001470F3F241F6D813C2F200031A6041F6D413F0
S31520001480C2F200031A687B69B2FBF3F241F6DC1361
S31520001490C2F200031A6041F6D413C2F200031A689E
S315200014A0BB69B2FBF3F241F6E013C2F200031A6005
S315200014B041F6D413C2F200031A68FB69B2FBF3F2B9
S315200014C041F6E413C2F200031A6041F6D413C2F2C5
S315200014D000031A6841F6D013C2F200031A6007F11E
S315200014E02807BD4680BD00BF80B48BB000AF4FF04B
S315200014F000037B6040F61C03C6F20803BB6040F283
S315200015003023C6F20803FB60FB681B6823F0704398
S315200015103B613A6941F2CF13C0F2A1539A4208D1F6
S315200015204EF62C73C6F201037B617B691B687B60D8
S315200015303DE0BB681A6844F24133C4F654439A42EC
S3152000154035D140F64003C6F20803BB61BB691B6870
S31520001550FB61FB6923F07F43FB61FA6940F20033AC
S31520001560C0F201039A4222D9FA694FF6FF73C0F2FC
S3152000157001039A4208D841F22C63C6F208033B6263
S315200015803B6A1B687B6012E0FA694FF6FF73C0F274
S3152000159002039A4208D841F6AC63C6F208037B627E
S315200015A07B6A1B687B6002E04FF000037B607B68F0
S315200015B0002B05D100BE47F64003C0F27D137B60A9
S315200015C07B68184607F12C07BD4680BC704700BFD4
S315200015D080B483B000AF78604FF0FF33184607F130
S315200015E00C07BD4680BC704780B584B000AFF8605C
S315200015F0B9607A6000F02EF903464FF00C021A60AB
S315200016004FF0FF33184607F11007BD4680BD00BFD7
S3152000161080B483B000AF7860FEE700BF80B500AF2E
S3152000162000F018F903464FF00B021A604FF0FF3313
S31520001630184680BD80B483B000AF786039603B68BF
S315200016404FF400525A604FF00003184607F10C077A
S31520001650BD4680BC704700BF80B400AF4FF0010389
S315200016601846BD4680BC704780B483B000AF786012
S315200016704FF00103184607F10C07BD4680BC7047A2
S3152000168080B582B000AF7860396000F0E3F8034699
S315200016904FF016021A604FF0FF33184607F108077D
S315200016A0BD4680BD80B582B000AF7860396000F05D
S315200016B0D1F803464FF01F021A604FF0FF33184649
S315200016C007F10807BD4680BD80B485B000AFF8603D
S315200016D0B9607A604FF00003184607F11407BD463B
S315200016E080BC704780B485B000AFF860B9607A607E
S315200016F04FF0FF33184607F11407BD4680BC7047EC
S3152000170080B485B000AFF860B9607A604FF000030E
S31520001710184607F11407BD4680BC704780B485B0D3
S3152000172000AFF860B9607A603B604FF0000318465E
S3152000173007F11407BD4680BC704700BF80B584B052
S3152000174000AF786041F6E823C2F200031B68002B45
S3152000175008D141F6E823C2F2000341F65032C2F224
S3152000176000021A6041F6E823C2F200031B68BB6040
S31520001770EFF30883FB6041F6E823C2F200031A6800
S315200017807B681A44FB689A420FD94FF000004FF04D
S31520001790010141F68012C2F200024FF01903FFF751
S315200017A0BDFF4FF00100FFF733FF41F6E823C2F2F9
S315200017B000031A687B681A4441F6E823C2F2000344
S315200017C01A60BB68184607F11007BD4680BD00BFEA
S315200017D080B483B000AF786039603B684FF4005224
S315200017E05A604FF00003184607F10C07BD4680BC2F
S315200017F0704700BF80B483B000AF78604FF0FF33EE
S31520001800184607F10C07BD4680BC704780B582B0EC
S3152000181000AF786000F01EF803464FF002021A600F
S315200018204FF0FF33184607F10807BD4680BD00BFBD
S3152000183080B582B000AF786000F00CF803464FF018
S315200018400A021A604FF0FF33184607F10807BD4613
S3152000185080BD00BF41F6EC13C2F200031868704742
S3152000186070B541F6BC1641F6BC15C2F20006C2F2AE
S315200018700005761BB61006D0002455F82430013416
S315200018809847A642F9D841F6BC1541F6C016C2F2D1
S315200018900005C2F20006761B00F084F8B61006D0CA
S315200018A0002455F8243001349847A642F9D870BD53
S315200018B00030014004300140083001400C30014026
S315200018C01030014014300140183001401C300140D6
S315200018D02030014024300140283001402C30014086
S315200018E03030014034300140383001403C30014036
S315200018F04030014044300140483001404C300140E6
S315200019005030014054300140583001405C30014095
S315200019106030014064300140683001406C30014045
S315200019207030014074300140783001407C300140F5
S315200019302000210022002300240025002600270065
S31520001940280029002A002B002C002D002E002F0015
S3152000195030003100320033003400350036003700C5
S31520001960380039003A003B003C003D003E003F0075
S315200019700100000002000000040000000100000039
S315200019804865617020616E6420737461636B2063A7
S315200019906F6C6C6973696F6E0A000000F019002085
S315200019A043000000F8B500BFF8BC08BC9E4670474F
S315200019B0F8B500BFF8BC08BC9E46704785040020D9
S309200019C07104002068
S315200019C400000000000000006464000040787D01EF
S315200019D440787D01105E5F00105E5F00105E5F0040
S315200019E4105E5F00E41A0020F019002000000000B9
S315200019F400000000000000000000000000000000BD
S31520001A04000000000000000000000000A0190020D3
S31520001A14000000000000000000000000000000009C
S31520001A24000000000000000000000000000000008C
S31520001A34000000000000000000000000000000007C
S31520001A44000000000000000000000000000000006C
S31520001A54000000000000000000000000000000005C
S31520001A64000000000000000000000000000000004C
S31520001A74000000000000000000000000000000003C
S31520001A84000000000000000000000000000000002C
S31520001A94000000000000000000000000000000001C
S31520001AA4000000000000000000000000000000000C
S31520001AB400000000000000000000000000000000FC
S31520001AC400000000000000000000000000000000EC
S31120001AD4000000000000000000000000E0
S705200002993F
